:100000000C94D6020C940E030C940E030C940E0365
:100010000C940E030C940E030C940E030C940E031C
:100020000C940E030C940E030C9499250C946D26DD
:100030000C947D200C940E030C940E030C940E0370
:100040000C940E030C940E030C940E030C940E03EC
:100050000C940E030C9404210C940E030C940E03C8
:100060000C940E030C940E030C940E030C940E03CC
:100070000C940E030C940E030C940E030C940E03BC
:100080000C940E030C940E030C940E030C940E03AC
:100090000C940E030C940E030C940E030C940E039C
:1000A0000C940E030C940E030C940E0329001E00F6
:1000B0001F0020002100220023002400250026002C
:1000C00027002A0035002D002E002B0014001A00F6
:1000D0000800150017001C0018000C001200130087
:1000E00034005F0060006100390004001600070062
:1000F00009000A000B000D000E000F00330028005D
:100100005C005D005E00E1001D001B0006001900A0
:10011000050011001000360037003800E5005900D6
:100120005A005B00E000E300E2002C0000002C001D
:10013000000001516500E6000253E4006200630024
:1001400058003A003B003C003D003E003F004000AC
:10015000410042004300440045004600470048007B
:100160000100000000000000000000000000C65C6C
:10017000C85CCA5CC45C530049004A004B000100E3
:1001800000000000260227022D002E005000510022
:1001900052004F0001004C004D004E0001000000D5
:1001A00000002F00300000000000C75CC95CCB5C81
:1001B000C35C010005555200005C01000100010014
:1001C0000100010001000100010001000100010027
:1001D0000100500051004F0001000100010001002A
:1001E0000100010001000100010001000100010007
:1001F00001000100010001000100010001000100F7
:1002000001000100010001000100010001000100E6
:1002100001000100010001000100010001000100D6
:1002200001000100010001000100010001000100C6
:1002300001000100010001000100010001000100B6
:1002400001000100010001000100010001000100A6
:100250000100000001000100010001000100010097
:100260000100010001000100010001000100000483
:100270007F3F1F643214643214783C1E1E140A053A
:100280002223252628292A2C2D2F303233353638A3
:100290003A3B3D3E4042434547494A4C4E505153FC
:1002A0005557595A5C5E6062646668696B6D6F7120
:1002B000737577797B7D7F81838587898A8C8E9022
:1002C000929496989A9C9E9FA1A3A5A7A8AAACAE2B
:1002D000AFB1B3B4B6B8B9BBBCBEBFC1C2C3C5C66B
:1002E000C7C9CACBCCCDCED0D1D2D2D3D4D5D6D714
:1002F000D7D8D9D9DADADBDBDBDCDCDCDCDCDDDD52
:10030000DDDDDCDCDCDCDCDBDBDBDADAD9D9D8D741
:10031000D7D6D5D4D3D2D2D1D0CECDCCCBCAC9C7E3
:10032000C6C5C3C2C1BFBEBCBBB9B8B6B4B3B1AF1A
:10033000AEACAAA8A7A5A3A19F9E9C9A98969492BA
:10034000908E8C8A89878583817F7D7B7977757391
:10035000716F6D6B6968666462605E5C5A5957556F
:100360005351504E4C4A4947454342403E3D3B3A2B
:100370003836353332302F2D2C2A292826252322B2
:10038000FFAA7F55400001010101010101010102A5
:100390000202020202020202030303030303030335
:1003A0000404040404040405050505050606060600
:1003B00006070707070708080808090909090A0ABC
:1003C0000A0B0B0B0C0C0C0D0D0D0E0E0E0F0F0F60
:1003D00010101111111212131314141515161617EB
:1003E00017181819191A1A1B1B1C1D1D1E1E1F2059
:1003F00020212222232424252626272829292A2BA6
:100400002C2D2D2E2F3031323233343536373839CA
:100410003A3B3C3D3E3F40414243444546474849C4
:100420004A4C4D4E4F50515354555658595A5B5D96
:100430005E5F616264656668696B6C6D6F70727334
:100440007577787A7B7D7E8082838587888A8C8E9B
:100450008F91939596989A9C9EA0A2A3A5A7A9ABCD
:10046000ADAFB1B3B5B7BABCBEC0C2C4C6C9CBCDBF
:10047000CFD1D4D6D8DBDDDFE2E4E7E9EBEEF0F371
:10048000F5F8FAFDFF0A0358004400370035000074
:10049000000C037800690075006400690000000426
:1004A00003090409023B00020100A0FA090400004C
:1004B000010301010009211101000122400007058B
:1004C0008103080001090401000103000000092163
:1004D00011010001227B00070582032000011201A7
:1004E0000002000000084478757501000102000157
:1004F00005010902A10185020901A10005091901EF
:1005000029081500250195087501810205010930AA
:1005100009311581257F95027508810609381581F5
:10052000257F950175088106050C0A38021581257D
:100530007F950175088106C0C005010980A101856C
:100540000319012AB700150126B70095017510811E
:1005500000C0050C0901A101850419012AA002159A
:100560000126A002950175108100C005010906A1B0
:1005700001050719E029E715002501950875018196
:10058000029501750881010507190029FF1500264C
:10059000FF009506750881000508190129059505D4
:1005A00075019102950175039101C00011241FBED0
:1005B000CFEFDAE0DEBFCDBF04B603FE18C08091F6
:1005C000D2029091D302A091D402B091D50287308B
:1005D000904BA740B04B59F41092D2021092D30224
:1005E0001092D4021092D502E0E0F8E3099511E0F0
:1005F000A0E0B1E0E2EDF2E502C005900D92A63C6C
:10060000B107D9F722E0A6ECB1E001C01D92A23DEE
:10061000B207E1F70E9453120C9451290C94000088
:100620002A9A0895229A0E94100308958F9A089595
:10063000879A0E94160308958C980895849A0E94C0
:100640001C0308950E9412030E9418030E941E03B7
:100650000E94F610089581E0089581E008950E94B7
:100660002D03089508950E9432030895A5E0B0E097
:10067000ECE3F3E00C94B22849835A833091CD0126
:1006800089819A81311119C0662399F0222389F05A
:100690000E943409182F682F89819A810E941009BD
:1006A00069817A81812F0E94B70F2596E3E00C942F
:1006B000CE280E942209182FF3CF0E9434096981A5
:1006C0007A81F1CFFC01262F4081518162817381B3
:1006D00084810E943603089581E00895CF93DF93CB
:1006E000EC0160E00E946203BE010E943303DF91CF
:1006F000CF9108950E94220308950E94F810089552
:1007000008950E94DB070E9480032FEF84E39CE0A2
:10071000215080409040E1F700C0000008950E9401
:1007200081030E94282108950E9481030E944C2188
:1007300008950F931F93CF93DF938C0161E00E9484
:100740006203EC01B8010E942F03811106C080E012
:10075000DF91CF911F910F910895B801CE010E94B2
:100760002A1F8823A1F3B801CE010E94E21B88232F
:1007700071F3B801CE010E949C1E882341F3B80199
:10078000CE010E94EE1A882311F3F801828188239A
:1007900061F0CB35FDE5DF0701F158F4C115ECE55B
:1007A000DE0791F0CF3DDC4591F0C8010E942B039C
:1007B000CFCFCD358DE5D80769F090F0C83ADD454B
:1007C000A1F70E949403C3CF0E948F03C0CF0E9461
:1007D000EE0DF7CF0E942C0DE8CF0E94360DE5CF2D
:1007E0000E943A0DE2CF0E9459200E941004089501
:1007F0000E9414040E945E20089508950E94FD0343
:10080000089581E008950E94010408950895CF930A
:10081000C82F0E94FE038C2F0E940304CF910895DD
:1008200080E00E94070408950E94861F0E9407042A
:100830000895CF930E94861FC82F8091C8018C17FE
:1008400079F0C093C8010E94E9206093C9017093B8
:10085000CA018093CB019093CC018C2F0E94070496
:10086000CF910895ABE0B0E0E8E3F4E00C94B32856
:100870004F83588769877A878B8761110E94770C2D
:100880001E821D8285E0FE013796DE0111960190E1
:100890000D928A95E1F78C819D81892B61F44981C4
:1008A0005A816B817C818D819E810E94A00B2B9649
:1008B000E2E00C94CF2889819A8189238F3F79F3D4
:1008C000CE0101960E946C038111E9CFF0CFFC01AB
:1008D000808191810E9466090895CF93C82F882353
:1008E000C9F08238C9F40E94861F81FD13C089E3D4
:1008F0000E942F0C0E94980C2FEF87EE93E021505E
:1009000080409040E1F700C0000089E30E94370C6E
:100910000E94980CCF9108958338A1F40E94861FFD
:1009200080FDF8CF83E50E942F0C0E94980C2FEFDA
:1009300081EE94E0215080409040E1F700C000003B
:1009400083E5E4CF8438A1F40E94861F82FDE2CFC4
:1009500087E40E942F0C0E94980C2FEF81EE94E008
:10096000215080409040E1F700C0000087E4CECFE6
:100970008CEF8C0F813AB8F48C2F0E94E11D81110D
:10098000C9CF6C2F80910001909101010E94EA1F54
:10099000882329F08C2F0E94370C0E94980C8C2FF2
:1009A0000E942F0CB5CF80E28C0F883048F4C770BE
:1009B00081E001C0880FCA95EAF70E945A0CA8CFBF
:1009C000EBE5EC0FE33040F4F0E0E85AFE4F8081B5
:1009D00090E00E94AC1F9ECFE8E5EC0FE73150F4A9
:1009E000F0E0EE0FFF1FE65DFE4F808191810E94D7
:1009F000C21F90CFCD3E08F48DCF8C2F0E94D7120E
:100A00000E94AA1387CF882309F455C0823879F44D
:100A10000E94861F81FF4FC089E30E942F0C0E9415
:100A2000980C89E30E94370C0E94980C0895833833
:100A300059F40E94861F80FF3EC083E50E942F0C60
:100A40000E94980C83E5EECF843859F40E94861FEB
:100A500082FF31C087E40E942F0C0E94980C87E42B
:100A6000E1CF9CEF980F913AE8F290E2980F98301E
:100A700050F4877091E001C0990F8A95EAF7892FA9
:100A80000E94600CD1CF9BE5980F933028F490E042
:100A900080E00E94AC1F089598E5980F973128F4E4
:100AA00090E080E00E94C21F08958D3E20F00E94D9
:100AB00031130E94AA1308951F93CF93DF93182F29
:100AC000EB010E946D04209739F4812F0E940305E9
:100AD000DF91CF911F9108958FE99FE00197F1F782
:100AE00000C000002197EFCF70E060E0893311F47F
:100AF00060E570E00E945C050895882321F00E9463
:100B00005A0C0E94980C0895882321F00E94600CD2
:100B10000E94980C0895B0E0A0E0E1E9F5E00C94A3
:100B2000AC286C01D62FC72FFC011281F580F294FE
:100B30009FE0F9220E94500CE82E8823B9F0E12EA4
:100B40001123A1F08C2F807F803421F080E28D0F63
:100B50008830D0F08091950282FF16C082E00E941A
:100B6000FB0C0E94500C91E0E82EE926BC2EB294BA
:100B70008FE0B822FBE0FB1508F468C0EB2DF0E035
:100B8000ED5AF64D0C946C28E12CF0CF0C2F0F7021
:100B9000C07F11F00295007F112399F0002359F0D6
:100BA00080E28D0F883010F0D11107C0802F0E9495
:100BB0005A0C0E94980C8D2F41C0802F0E946A0C05
:100BC000F8CF8D2F0E940305002309F43FC080E277
:100BD0008D0F883010F0D11104C0802F0E94600C5E
:100BE00003C0802F0E94700C0E94980C2FC00C2F05
:100BF0000F70C07FC03211F00295007FDD2381F0BD
:100C0000D13009F463C0112309F46DC0FF2009F449
:100C100063C0F601858180FFCECF8F7085835CC075
:100C20008091950282FD33C0112359F0002329F0F1
:100C3000802F0E945A0C0E94980C80E00E946D0444
:100C400005C080E00E9403050111C7CFEB2DE850DD
:100C5000FF0B349720F40E94861F0E940704EE20A9
:100C600089F00E944C0C80FD0DC0F60112820E949A
:100C7000460C0E946E08C6010E949B070E94460C0B
:100C80000E947E08CDB7DEB7E9E00C94C828112396
:100C900089F0F11006C00E947A0C802B0E947D051D
:100CA000D5CF21E0F212F7CF0E947A0C802B0E9460
:100CB000810CCCCFF11006C00E948E0C802F0E94B8
:100CC0008405C4CF31E0F31609F2F6CF112331F0D9
:100CD00085E08F1508F4BACF802FE0CF94E09F1500
:100CE00008F4B4CFEBCFFF2049F3D93349F4FFEF39
:100CF00027EE33E0F15020403040E1F700C0000023
:100D00008D2F0E940305A2CF8C2F86958695837028
:100D100069F0813009F09ACF8D2F9C2F93701111BB
:100D200002C090E080E00E94C21F90CF8D2F9C2FC8
:100D30009370111102C090E080E00E94AC1F86CF3A
:100D40008D2F112329F00E94D7120E94AA137ECF63
:100D50000E943113FACF8C2F8370A1F5111176CF39
:100D60004D2F429546954770440F440F2D2F2F70FD
:100D700030E0042E02C0220F331F0A94E2F790E005
:100D800080E0D4FF09C08FE090E002C0880F991F77
:100D90004A95E2F780959095C695C695C370822BCB
:100DA000932BC23049F058F4C13019F00E943C082E
:100DB0004DCF0E9433084ACF0E94450847CF0E947A
:100DC000300844CF8695112311F08C2F8170882331
:100DD00009F43CCF4D2F429546954770440F440F80
:100DE0002D2F2F7030E0042E02C0220F331F0A94E3
:100DF000E2F790E080E0D4FF09C08FE090E002C00D
:100E0000880F991F4A95E2F780959095C695C695EB
:100E1000C370822B932BC23049F058F4C13019F0C3
:100E20000E94A90813CF0E94A00810CF0E94B20808
:100E30000DCF0E9454080ACFCF70112329F08C2FB8
:100E40000E946E088D2F2ACF8D2F0E9484058C2F33
:100E50000E947E08FBCED23F51F160F4D03FB9F042
:100E6000D13F81F0112309F449C0F110A4CE8C2F99
:100E70008F7121C0D33F11F1D43FA1F7809195022A
:100E800082FD26C08C2F8F71112311F314C0112302
:100E900049F084E08F1508F4D9CE8C2F8F710E9411
:100EA0009008D4CE95E09F1508F4D0CEF6CF8C2FC5
:100EB0008F711111CDCF0E946E08C8CE112329F079
:100EC0008C2F8F710E946208C1CE0E945D08BECE39
:100ED000112349F0CF718C2F0E946E0863E08C2F94
:100EE0000E94DD0CB3CE81E00E94FB0CE1E0EF1527
:100EF00008F0ACCE82E00E94FB0CA8CEF110F5CE3B
:100F00008C2F8F71A5CF0F931F93CF93DF93EC019D
:100F1000688179818A810E9471098C010E94BB08D5
:100F20000E942F08B801CE010E948B05DF91CF915E
:100F30001F910F910895CF93DF93EC018B819C81DA
:100F4000892B29F08881998189238F3F51F4DF9182
:100F5000CF910895CE010E948307CE010E946E03B7
:100F6000F6CFCE010E9499038111F4CF0E94500C5C
:100F7000882369F38A81882351F38091950282FF47
:100F8000E6CF82E00E94FB0CE2CF90E080E00E947E
:100F9000AC1F90E080E00E94C21F0E94770C0E946C
:100FA000980C0E94C6130E94AA1308950E943F0C39
:100FB0000E94C50708950E94670C0E94D6070895F5
:100FC00092959F70963091F058F4925F9F70923096
:100FD00058F4803F19F030F4883E30F481E00895F1
:100FE0009A5FF4CF843FD1F380E00895883EB0F358
:100FF000813FD1F7F3CFFC0183819481892B29F0C4
:101000008081918189238F3F11F480E00895808150
:1010100091810E9466090E94E0070895A5E0B0E072
:10102000E4E1F8E00C94B3282596E2E00C94CF2894
:10103000A6E0B0E0EEE1F8E00C94B3282696E2E0FA
:101040000C94CF2808950E94220808950E94230836
:101050009093F9018093F8010E94C50708950895BF
:101060000E94260808952091F8013091F901822B01
:10107000932B0E94260808952091F8013091F901E0
:10108000822393230E94260808952091F80130912D
:10109000F901822793270E94260808950E942208BA
:1010A00008950E944E0808950E9451089093F701F8
:1010B0008093F6010E94C507089590E080E00E94A9
:1010C0005408089521E030E0A90102C0440F551FE3
:1010D0008A95E2F7CA010E945408089521E030E0A1
:1010E00002C0220F331F8A95E2F78091F60190919A
:1010F000F701822B932B0E945408089521E030E0E1
:1011000002C0220F331F8A95E2F720953095809117
:10111000F6019091F701822393230E9454080895C9
:1011200021E030E002C0220F331F8A95E2F7809160
:10113000F6019091F701822793270E9454080895A1
:101140002091F6013091F701822B932B0E945408D5
:1011500008952091F6013091F701822393230E9494
:10116000540808952091F6013091F70182279327C2
:101170000E94540808950895262F277091E001C019
:10118000990F2A95EAF723E0769567952A95E1F776
:10119000660F771F660F771FFA01E60FF71F50E003
:1011A00040E0682F70E08191DF0111979B01042ED0
:1011B00002C0369527950A94E2F7217021952827D9
:1011C000292328272C934F5F5F4F4430510559F74F
:1011D0000895A82FA77023E0969587952A95E1F7A3
:1011E000880F991F880F991FFB01E80FF91F50E026
:1011F00040E080E0219130E00A2E02C0369527952C
:101200000A94E2F721703327042E01C0220F0A94BA
:10121000EAF7822B4F5F5F4F4430510559F708952D
:10122000262F953070F48F3060F4682F70E08FE0D7
:10123000989F600D711D11244EEC51E0822F0E9489
:10124000BC080895292F953068F48F3058F490E049
:101250006EEC71E03FE0239F800D911D11240E94F0
:10126000E908089580E00895B0E0A0E0EAE3F9E03D
:101270000C94AC287C010091F6011091F70180914B
:10128000F8019091F901082B192BCFE0D0E0CC2484
:10129000C394D12CBC2EC6010C2E02C0880F991FFE
:1012A0000A94E2F780239123892B49F4219790F740
:1012B000B12C8B2DCDB7DEB7E9E00C94C828B7016F
:1012C0008C2F0E94D20F019789F3F3CFCF93DF9336
:1012D000EC010E943409BE010E94D20FDF91CF9130
:1012E00008951F93CF93DF93EB019091CD01992344
:1012F00039F0CB010E946609DF91CF911F910895CB
:10130000882369F0CB010E943409182F682FCE0181
:101310000E941009BE01812F0E94D20FEDCFCB0198
:101320000E942209182FF6CF1F93CF93DF93C0910D
:10133000FA0116E08091FB018C1304C0DF91CF917C
:101340001F910895D0E01C9FF0011D9FF00D112406
:10135000E450FE4F40815181628173818481958187
:101360000E9418082196C770E5CF40912C02509139
:101370002D0260912E0270912F0280913002909187
:1013800031020E94180808951F93CF93DF93809134
:101390003102807F09F049C080912E02882309F430
:1013A00044C08091FA01C091FB0160912C027091C0
:1013B0002D02A0912F02B0913002D62FD72316E034
:1013C000C81799F190E0109711F0DF3F19F40196DA
:1013D0008770F6CF189F9001199F300D1124F901E5
:1013E000E450FE4F41814713F2CF40814613EFCFC7
:1013F00042814111ECCF438154814A1B5B0B483C35
:10140000510528F7809131028F70806180933102FD
:10141000F901EF5FFD4F80818F70806180838CE2E6
:1014200092E00E949B070E949409DF91CF911F9147
:101430000895A1E1B0E0EFE1FAE00C94AB288C0153
:1014400085E0F801DE011D9601900D928A95E1F785
:10145000F801E2808CE2C82E82E0D82E60912F0243
:10146000709130026115710509F44EC190912C0202
:1014700020912D02892F82238F3F09F445C140819D
:101480005181A380B480F0902E02F501E61BF70B8A
:10149000FF2009F4EAC080913102382F307FE83C08
:1014A000F10508F0A3C031116DC0FE2C251316C044
:1014B000941314C0E11012C08F70806180933102C8
:1014C0000E94B509C6010E949B0780913102F80174
:1014D00085838F2D6196EAE00C94C728A114B1048E
:1014E00029F0842F85238F3F09F027C180E0F82F52
:1014F000F170DF2E80FF3CC08091FA012091FB014A
:1015000036E0821315C04D875E878D859E850E94CB
:101510006609292F22952F702230F0F0243018F51B
:101520009F70F1F0F8019581907FD1F4D12C1EC00D
:1015300090E0389FF001399FF00D1124E450FE4FE8
:101540006181651306C06081641303C06281E61285
:101550000FC001968770D5CF9F7011F0882331F3AB
:10156000805E883018F3C8010E949B07FD2CB1CF24
:10157000EE2009F4AECF8091310281608093310278
:10158000F12CA7CF251306C0941304C0F801EE2058
:1015900009F487C0C8010E94FB07882319F1EE20D7
:1015A00009F180913102803270F020912C0230914B
:1015B0002D0238872F831986BB86AA868C87CE0199
:1015C00007960E949B0786E0F801ACE2B2E001902A
:1015D0000D928A95E1F70E94C4090E94B509FF2483
:1015E000F39477CFC8010E949B07F9CF311113C044
:1015F0007A2DB98AA88A6E2D89890E940E088CE2FC
:1016000092E00E949B0786E0F60111928A95E9F725
:101610000E94B509B5CF25130FC094130DC0E1107A
:101620000BC0F8018583C8010E949B0786E0F60184
:1016300011928A95E9F74DCFC8010E94FB078823D4
:1016400089F2EE2079F280913102803208F4BBCF2A
:1016500020912C0230912D023A8329831B82BD8276
:10166000AC828E83CE010196ACCFE83CF10508F048
:101670003EC0FE2CEE2009F4B5CF25132AC09413EA
:1016800028C08091310280FD1BC0982F907FC1F04F
:10169000F8018583903F31F0982F907F905F8F7095
:1016A000892B8583C8010E949B0786E0F801ACE284
:1016B000B2E001900D928A95E1F70E94B50909CF39
:1016C00086E0F801ACE2B2E001900D928A95E1F774
:1016D00000CFC8010E94FB07811175CF80913102B4
:1016E000816080933102C8010E949B07F2CE7A2D5F
:1016F000B98AA88A6E2D89890E940E0886E0F601B3
:1017000011928A95E9F7D9CFEE2009F46BCFC80181
:101710000E94FB07F82E882309F464CF86E0F801C5
:10172000ACE2B2E001900D928A95E1F78CE292E092
:101730000E9467040E94C409C0CF81E08E25D7CEE5
:10174000ACE0B0E0E6EAFBE00C94B2284F835887A7
:1017500069877A878B879C87CE0107960E94190A32
:10176000882369F08A859B85892B39F04F815885BC
:10177000842F85238F3F09F06BC016E05FC086E0A1
:10178000FE013796DE01119601900D928A95E1F7E0
:101790008A859B85892B89F388859F8189238F3F43
:1017A00061F32091FB0130E0C90101968770992710
:1017B0004091FA014817190671F40E94DB07109254
:1017C000FB011092FA0186E0ECE2F2E0DF011D92EB
:1017D0008A95E9F7D2CF96E0929FD001939FB00D02
:1017E0001124A450BE4FFE01319601900D929A959E
:1017F000E1F78093FB010E949409BFCF819FC00154
:10180000112484509E4F0E94190A8823E9F0E09128
:10181000FA011E9FF0011124E450FE4F40815181D6
:1018200062817381848195810E9418088091FA01F8
:1018300090E00196877099278093FA018091FA01D0
:101840009091FB018913DACF2C96E3E00C94CE281B
:1018500069857A858B859C850E9418088ECF682FB4
:1018600080910001909101010E9420200895682F2D
:1018700080910001909101010E94232008958091A0
:101880000001909101010E942620089580913A0262
:10189000859585958595089580913A02877008957C
:1018A00090913A02977081E009F480E00895809168
:1018B0004502089590914502892B80934502089531
:1018C0008095909145029823909345020895109237
:1018D0004502089590914402892B80934402089513
:1018E0008095909144029823909344020895109219
:1018F0004402089580913B02089508950E947D0C52
:1019000008959091950292FF08C090913B0298171C
:1019100021F080933B020E947E0C089580913B024F
:10192000882329F010923B0280E00E947E0C0895EB
:10193000CF93DF93E0910001F09101018091450286
:101940008083E0910001F091010180819091440237
:10195000892B808390913B02992381F0E0910001D3
:10196000F09101018081892B808380910001909109
:1019700001010E94D81F81110E948E0CC0910001AC
:10198000D091010148E050E062E372E0CE010E9494
:10199000F328892B59F088E0FE01A2E3B2E0019020
:1019A0000D928A95E1F7CE010E94931FDF91CF91AE
:1019B000089508950E94D90C08959091950292FF80
:1019C00011C098E0899F90011124622B60933A0224
:1019D0000E946E0880913A028595859585950E94B2
:1019E000DA0C08950E946E08089510923A0280E081
:1019F0000E94DA0C089590913A0280958923809391
:101A00003A02282F277091F4282F082E000C330B50
:101A10009217130659F09091950292FF07C0859591
:101A2000859585950E947E080E94F50C08959091F9
:101A3000950292FB222720F9281769F080FB92F982
:101A40009093950280919402909195020E94680D66
:101A500082E00E94FB0C08958091950282FB88270A
:101A600080F991E089270E94170D089581E00E9476
:101A7000170D089580E00E94170D08956FEF7FEF16
:101A800090E080E00E943B29089590E080E00E9471
:101A9000172921E0883E9E4F09F020E0822F08950B
:101AA00082E090E00E940929089583E090E00E947E
:101AB00009290895CF9384E090E00E940929C82F56
:101AC00082E290E00E940929982F8C2FCF910895EF
:101AD000CF93C92F682F84E090E00E941D296C2FBE
:101AE00082E290E00E941D29CF910895AB01BC01D4
:101AF0008FE090E00E942F290895AB01BC0183E1A3
:101B000090E00E942F29089560E070E0CB010E94D0
:101B10007D0D089560E070E0CB010E94760D0E947B
:101B2000840D089568EE7EEF90E080E00E943B29EE
:101B300060E082E090E00E941D2960E083E090E098
:101B40000E941D291092F9011092F80160E084E0D2
:101B500090E00E941D2964E082E290E00E941D292D
:101B600060E085E090E00E941D2960E086E090E062
:101B70000E941D296FEF87E090E00E941D2940E040
:101B800050E0BA0188E090E00E942F2960E08DE0EB
:101B900090E00E941D2940E050E0BA0188E190E009
:101BA0000E942F2960E087E190E00E941D2940E01B
:101BB00050E0BA018CE190E00E942F2970E060E0D3
:101BC00080E290E00E943B2940E050E0BA0188E1C9
:101BD00090E00E942F290E948A0D08950E94920D84
:101BE0000895682F8EE090E00E941D2908950E94BC
:101BF000E9206093560270935702809358029093A5
:101C0000590260935202709353028093540290934E
:101C100055020895089508950E940B0E08950895A1
:101C20000E940F0E08958CEB90E10E947C1F0E9491
:101C30000A0E0E940C0E089581E008950E941C0E69
:101C40000895089508950E94210E0E94220E08957D
:101C50000E94D8100E94060408950E94D4200E9479
:101C6000B4110E94280E0E94121A0E94100E0895AC
:101C7000AAE0B0E0EEE3FEE00C94A8280E94CA11AE
:101C800028E4822E22E0922E640110E0F601E19019
:101C9000F1906F01812F0E94FB101F5F153009F436
:101CA00049C0E816F90691F380915A0281FD0E941D
:101CB00004110E941E0E782E10E0812F0E94FB104E
:101CC0007C01F401A190B1904F018A159B0561F14F
:101CD00000E0CC24C394D12CAE24BF24C5018C21B8
:101CE0009D21892BC1F07720B1F00E831F8321E065
:101CF000C7018C219D21892B09F420E028870E94AF
:101D0000DD208160782F9A8789874E815F81688581
:101D10008A850E9432040F5FCC0CDD1C0F30F1F677
:101D2000F4013297F182E0821F5F153031F60E9494
:101D3000F70D22C0E816F90609F0B6CF0E94DD20A3
:101D40008C01809146029091470208171907A1F073
:101D50008FEF89838A831B820E94DD208160782F28
:101D60009D838C8349815A816B818D810E943204CD
:101D700010934702009346020E94451A0E94E813FE
:101D80000E9419042A96EDE00C94C428CF93DF93A7
:101D90000E94D70FEC01811521E5920708F042C09F
:101DA000811530E5930708F09FC0883E910530F516
:101DB000803E910508F094C0883A910588F4853AF0
:101DC000910508F086C08130910509F489C000971B
:101DD00009F486C0049708F083C0D0E0C0E080C05A
:101DE0008F3B9105D0F7C85AD0E0CC0FDD1FC55A04
:101DF000DE4F0990D881C02DD46472C0811540E2B5
:101E0000940750F4C11581E0D80708F069C0CD3EB1
:101E1000D10518F3D06564C081159044F0F2DF70ED
:101E2000D06A5EC0811535E5930718F5811544E544
:101E3000940708F085C0C11583E5D80708F06CC089
:101E4000C11522E5D20708F462C0CE01837099273C
:101E500021E030E002C0220F331F8A95E2F7C695D9
:101E6000C69580E2C89FE0011124C22BD32BDC6809
:101E700037C0811539E59307A8F4811548E5940723
:101E800008F063C0C11586E5D80708F0A6CF8C2FEF
:101E90000E947910C82FD0E0DC2FCC27CC27DF712F
:101EA000D0621EC081152AE5920708F453C09056EF
:101EB0008115904208F091CF8D2F8F710E9479107B
:101EC00090E0982F882788279F719C012C2BE9018F
:101ED000E7CFC55AD0E0C757DE4FC881D0E0D06405
:101EE000CE01DF91CF9108958370992721E030E0F2
:101EF00002C0220F331F8A95E2F7C695C69540E2CD
:101F0000C49FE0011124C22BD32BDD68E9CFDC2F65
:101F1000CC27C16FD06AE4CFCE018370992721E02E
:101F200030E002C0220F331F8A95E2F7C695C695AE
:101F300040E2C49FE0011124C22BD32BDA68D0CF3A
:101F4000D82FCC27C46FD06ACBCFD82FCC27C06F67
:101F5000D06AC6CF8F700E94791034E0D695C795AD
:101F60003A95E1F7CF709C2FEC01D069B9CF972F4C
:101F70007530A8F46F3098F470E02FE0929F600DF8
:101F8000711D1124FB019BE4899FE00DF11D1124BB
:101F9000EE0FFF1FE455FF4F85919491089580E067
:101FA00090E008950E94B70F0E94C60E08958238EF
:101FB0009105B9F1B0F48133910509F47DC048F47D
:101FC0008932910509F46DC08A32910509F47BC00C
:101FD00008958533910509F45FC08933910509F1AE
:101FE0000895833E9105D9F138F4803E910529F199
:101FF000823E910579F10895863E9105D9F1873E9B
:10200000910509F43EC0843E910541F52091950269
:1020100021FF24C08091940284FD19C087EE90E0D6
:10202000089520919402237009F05AC020919502DE
:1020300023FF14C089E290E008952091940220FDCE
:1020400038C03091950230FF09C024FF43C090E0B2
:1020500080E008952091940222FDF7CF0895209109
:10206000940222FD3AC03091950230FD39C024FF20
:10207000F5CFEDCF2091940223FFF0CF24FDE7CFE1
:10208000CDCF2091940223FD2EC03091950231FFD7
:10209000EECF84EE90E008952091940225FFDECFEC
:1020A000C9CF2091940225FD21C02091950223FFE4
:1020B000D5CF89E390E0D2CF2091940226FFCECFF6
:1020C0008AE290E008952091940226FFC7CF81E331
:1020D00090E0089583EE90E0089582EE90E00895F8
:1020E00080EE90E0089586EE90E0089585E390E01C
:1020F00008959091940292FF06C0282F28712830ED
:10210000F9F4877F846093FF06C0282F2871283157
:10211000F1F4877E84612091950220FF06C0382F5C
:1021200038713830D9F4877F816021FF06C0282FAD
:1021300028712831D1F4877E816194FD877E0895CE
:10214000282F24712430F9F68B7F8860DCCF282F6C
:102150002471243101F78B7E8861DDCF382F3171F6
:10216000313019F78E7F8860E0CF282F217121311F
:1021700021F78E7E8861E1CF80E008950E943E0DB8
:1021800008950E94CA118FE39CE90197F1F700C0FE
:1021900000000E94CA1180E00E94FB1080FF04C072
:1021A0000E94BE100E94282108950E94C110089527
:1021B0000E94450D811102C00E94EE0D0E94500D3B
:1021C00080935A020E945A0D909395028093940234
:1021D0000E94D5100E94550D90E00E943008809119
:1021E000F6019091F7010E9451080895089508950D
:1021F0000E94F7100895E82FF0E0EE0FFF1FE05661
:10220000FD4F808191810895089580EA8A95F1F7C4
:10221000089500C008950E9405110895F894E82FCC
:10222000E295EF70F0E031A1282F2F7081E090E06F
:1022300001C0880F2A95EAF7982F9095932391A3D0
:1022400092A1892B82A3789408950F931F93CF9323
:10225000DF93CBE9D1E089918F3F11F00E940E11FD
:1022600081E0C03AD807B9F7CCE8D1E00BE911E03A
:1022700089918F3F11F00E940E110C171D07C1F7B5
:10228000DF91CF911F910F910895AF92BF92DF928E
:10229000EF92FF920F931F93CF93DF938C01D62E73
:1022A000C62FD0E0CE0185569E4F7C01FC012081D7
:1022B0002F3F09F44CC0F894E22FE295EF70F0E064
:1022C00031A12F7081E090E001C0880F2A95EAF7D4
:1022D000932F982B91A392A18095892382A3789420
:1022E0000E940911ECE8F1E041E050E0B12CA12C92
:1022F00021912F3FB1F1A22FA295AF70B0E090963F
:102300008C9190E02F7002C0959587952A95E2F701
:1023100080FD27C0CA01A82AB92A440F551F81E0B1
:10232000EB39F80729F7F70180818F3F11F00E9400
:102330000E1161E0A114B10409F460E08D2D0E943A
:102340000B11CC0FDD1FC00FD11FB982A882DF9106
:10235000CF911F910F91FF90EF90DF90BF90AF90C2
:10236000089590E080E0D7CF0E9425118AE0E0EA4E
:10237000F2E0DF01982F1D929A95E9F7E6E9F2E085
:10238000DF011D928A95E9F785E00E9405120E94FF
:102390007A030895AAE0B0E0E0EDF1E10C94B028F2
:1023A0008E010F5F1F4F8AE0F80111928A95E9F7BD
:1023B000F12C6F2DC8010E944511F394F5E0FF1236
:1023C000F8CF4AE050E0B80186E992E00E94F32895
:1023D00021E0009709F420E0892B41F08AE0F80120
:1023E000A6E9B2E001900D928A95E1F745E060EA36
:1023F00072E086E992E00E940612182F0E947D0387
:10240000812F2A96E5E00C94CC280895CF92DF9294
:10241000EF92FF921F93CF93DF936C017B01C42F48
:10242000222349F081E080935D020E94DD20909399
:102430005C0280935B0210915D0211110AC010E0F2
:10244000812FDF91CF911F91FF90EF90DF90CF9080
:10245000089580915B0290915C020E94F52005979F
:1024600070F3D0E0CC0FDD1FAE01B601C7010E94B2
:10247000F328892B41F0AE01B601C7010E94002963
:1024800010925D02DDCF10E0FBCF0E94EF220E9490
:102490002D0E0E94FC2208950E9401230E94380EF6
:1024A0000E941B2308950E9476200E94D5220E943C
:1024B000130E0E9445120E944C120E94230EFBCF65
:1024C0008091640280FF0DC06091070170E0660F8B
:1024D000771F6038710570F56115710569F1862FF8
:1024E000089581FF07C06091070184E0689FB001F3
:1024F0001124EFCF6091070182FD0AC08091630231
:102500008823A9F02091060160910701821710F03D
:1025100088E0ECCF869FC001112433E0880F991F1B
:102520003A95E1F7622F70E00E943628D2CF68E03A
:1025300070E0D5CF8FE7089581E00895809164021F
:1025400080FF0CC06091030170E0759567957595EB
:1025500067956115710549F1862F089581FF06C0C1
:102560006091030170E075956795F3CF6091030169
:1025700082FD0BC0909162029923A1F0609102014B
:1025800080910301961738F0682F70E0603871056C
:1025900000F38FE70895899FC001112470E00E9425
:1025A0003628F4CF61E070E0D7CF81E008958D3E0A
:1025B00031F40E94601281958093680208958E3EE6
:1025C00019F40E946012F8CF8F3E31F40E9460121D
:1025D0008195809367020895803F19F40E946012EC
:1025E000F8CF893F29F40E949E12809369020895D2
:1025F0008A3F21F40E949E128195F7CF8B3F31F4E0
:102600000E949E12819580936A0208958C3F19F46E
:102610000E949E12F8CF9FE0980F983070F4815F6F
:10262000990B21E030E001C0220F8A95EAF78091F2
:102630006602822B8093660208958D3F31F480916B
:10264000640281608093640208958E3F21F480913A
:1026500064028260F7CF8F3FB9F780916402846093
:10266000F1CF409167028D3E59F48091680287FF57
:102670000DC01092680241110BC01092630208C095
:102680008E3E81F48091680218169CF3442381F0F9
:102690008091690290916A02892B09F05AC01092C8
:1026A000620208958F3E49F447FFF0CF109267020F
:1026B000809168028111ECCFE0CF803F19F41416AD
:1026C000ACF3E4CF90916902893F29F41916F4F62E
:1026D00010926902DBCF8A3F19F497FFD7CFF8CF6A
:1026E00090916A028B3F29F497FFD0CF10926A0233
:1026F000CDCF8C3F19F41916CCF3C8CF9FE0980FBB
:10270000983090F4815F990B21E030E0B90102C06C
:10271000660F771F8A95E2F7CB018095909166024C
:10272000892380936602B2CF8D3F31F48091640299
:102730008E7F80936402AACF8E3F21F48091640241
:102740008D7FF7CF8F3F09F0A1CF809164028B7FFF
:10275000F0CF08950E94DD209C0190916702809146
:102760006802982B21F030936102209360029091CF
:10277000690280916A02982B21F030935F022093C6
:102780005E0285E692E00E949E1F089586E0E5E6DF
:10279000F2E0DF011D928A95E9F710926302109230
:1027A0006202109264020895FC01828181110EC0C0
:1027B000838181110BC08481811108C091E08581E2
:1027C000811101C090E0892F8170089581E0FCCFD4
:1027D000A6E0B0E0EEEEF3E10C94B22886E0E5E688
:1027E000F2E0DE01119601900D928A95E1F71092C8
:1027F0006702109268021092690210926A028B813D
:102800009C81892B89F080916002909161020E94E5
:10281000F520AC01909163029923C9F180910801E0
:102820008417150608F440C08D819E81892B91F094
:1028300080915E0290915F020E94F520AC01909120
:102840006202992309F471C080910401841715066E
:1028500008F479C0BE016F5F7F4F85E692E00E9469
:102860002D20811105C085E692E00E94D4138111CC
:102870000E94AA1386E0FE013196A5E6B2E001901F
:102880000D928A95E1F72696E3E00C94CE282091EC
:1028900009018AE0289F900111242417350720F6AA
:1028A0009F5F9093630202C09F3FD1F71B8111236A
:1028B00059F00E9460129FEF11160CF491E0899F6D
:1028C000802D1124809367021C81112359F00E94EE
:1028D00060129FEF11160CF491E0899F802D112456
:1028E0008093680230916702332309F49DCF2091D1
:1028F0006802222309F498CF45EB3403C001112468
:10290000992359F09093670245EB24039001112419
:10291000332339F03093680287CF81E080936702D8
:10292000F3CF81E0809368027FCF209105018AE098
:10293000289F900111242417350708F08BCF9F5F43
:102940009093620202C09F3FD1F71D81112359F07D
:102950000E949E129FEF11160CF491E0899F802D2A
:102960001124809369021E81112359F00E949E1246
:102970009FEF11160CF491E0899F802D1124809314
:102980006A0230916902332309F464CF20916A020C
:10299000222309F45FCF45EB3403C00111249923AE
:1029A00059F09093690245EB2403900111243323DD
:1029B00039F030936A024ECF81E080936902F3CF01
:1029C00081E080936A0246CFEF92FF920F931F93AC
:1029D000CF93DF93EB01E82FD1110EC0442321F0F8
:1029E000F0E0EB57FC4FE4916E2F7E2F8E2FCDB78A
:1029F000DEB7E6E00C94CB280D2F10E0282F30E056
:102A0000442329F02B573C4FF901249130E0F6E0A4
:102A1000CF9FC0011124EFEFF0E0BF010E942228F8
:102A2000AB018C2F90E0880F991FA5E5A49FB00102
:102A3000A59F700D1124861B970B982F990F980F47
:102A4000BF01601B710B629FD001639FB00D729F2D
:102A5000B00D11248B2F9D9FB0011124672F772774
:102A6000EF01C61BD70BBE01629FE001639FD00D33
:102A7000729FD00D11247F01E91AF108E09EB00188
:102A8000E19E700DF09E700D1124672F7727E61BD5
:102A9000F70BE29F8001E39F100DF29F100D1124B0
:102AA000E12F722F4230510599F048F4411551053C
:102AB00069F04130510581F0EB2F8D2F07C0443074
:102AC000510569F080F046305105B1F76E2F8FCF78
:102AD000E22F7B2F812FFACFE22F7D2FF7CFEB2F25
:102AE000822F712FF3CF7B2F822FED2FEFCF41E07D
:102AF0000E94E414089508950E9477150895CF93D5
:102B0000DF93762FE901682F842F0E947C1579834B
:102B100068838A83DF91CF9108958091AA02982FCC
:102B20009E7F29F4817082608093AA0208958A347E
:102B3000E8F381708864F8CF88E090E00E94112962
:102B40000895CF92DF92EF92FF926B017C010E9479
:102B50008D15B701A60188E090E00E942F29FF9013
:102B6000EF90DF90CF900895EAEAF2E083E080836F
:102B700011828FEF828383831482608171818281CD
:102B800093810E94A11508958091AA0280FF02C03E
:102B90008695089580E008959091AE02933018F4E0
:102BA0009F5F9093AE02882351F06091AA027091CA
:102BB000AB028091AC029091AD020E94A1150895E4
:102BC00081E00E94CC1508959091AE02992319F0EE
:102BD00091509093AE02882351F06091AA027091B7
:102BE000AB028091AC029091AD020E94A1150895B4
:102BF00081E00E94E415089570E00E94B61B0895DC
:102C000060910E018091AA0280FF0BC080910D019E
:102C100023E0829FC001112481559D4F0E94FC1525
:102C2000089580910F019091100123E0829FF0019F
:102C30001124E155FD4F891748F711821082128245
:102C40008F5F3396F8CF9091AA0290FF0EC09091BB
:102C50000F012091100133E0939FF0011124E15501
:102C6000FD4F921718F00E9400160895818360832B
:102C700042839F5F3396F5CFA3E0B0E0E2E4F6E154
:102C80000C94B3289091AA0290FF0AC09E012F5F76
:102C90003F4F0E947F154B8169818A810E942316D4
:102CA0002396E2E00C94CF28CF93DF93EC01EC81E4
:102CB000F0E0E058FD4F4491EAEAF2E06281818160
:102CC0000E943C168C818F5F8C83DF91CF91089599
:102CD000CF93DF93EC01EAEAF2E0438162818C81D9
:102CE0000E943C168C818F5F8C83DF91CF91089579
:102CF000A3E0B0E0EEE7F6E10C94B1288C018091FE
:102D00006B0281110AC09E012F5F3F4F4FEF6FEFA3
:102D10000E947F158A8180936B02F8016481613083
:102D200069F080916B0240E0662361F040E0623020
:102D300011F440916B0280E060E004C060916B028E
:102D400040E080E00E942316F801848190E0019623
:102D500063E070E00E94362884832396E4E00C94BC
:102D6000CD28A3E0B0E0E7EBF6E10C94AC28082F07
:102D7000D62EE42EC22E9091AA0290FF29C0E92FF0
:102D8000E695AE2FB0E0A056BE4F8C9180937502B1
:102D90009E7F923009F59E012F5F3F4F802F0E944A
:102DA0007F154B8169818A810E9423160093AB02B3
:102DB000D092AC02E092AD02CC2051F06091AA0218
:102DC0007091AB028091AC029091AD020E94A1156E
:102DD0002396E9E00C94C828823019F4E090AD0203
:102DE000E5CF863019F40091AB02E0CF8930D9F3FA
:102DF0008931E1F6E9516E2F6170B62EE695F0E06B
:102E0000E058FC4F1491F12C60911101F61618F066
:102E10000E940016CBCFF19EC001112470E00E94E9
:102E20002228802FB11014C0860F20910F01622F2D
:102E30006F0D7727771F9B01220F331F260F371F38
:102E400021553D4F4E2D6D2D0E947F15F394DCCF03
:102E5000861BEBCFEAEAF2E09181282F4381628161
:102E60008CE0890F0E94B116089581E00E942A1714
:102E70000895EAEAF2E09181282F4381628184EF8C
:102E8000890F0E94B116089581E00E9439170895B4
:102E9000EAEAF2E0628129E1620F08F46FEF282F7D
:102EA000438181810E94B116089581E00E944817F4
:102EB0000895EAEAF2E0628129E1621B08F460E029
:102EC000282F438181810E94B116089581E00E94DC
:102ED00059170895EAEAF2E043812CE0420F08F422
:102EE0004FEF282F628181810E94B116089581E001
:102EF0000E946A170895EAEAF2E043812CE0421B3F
:102F000008F440E0282F628181810E94B116089563
:102F100081E00E947B17089520E00E94B116089579
:102F2000EF92FF921F93CF93DF93EC0110E0EE241A
:102F3000EA94F12C60911101161770F00E940016AE
:102F40009A818C8190FF27C08F5F8C83DF91CF9116
:102F50001F91FF90EF90089520910F01422F410F94
:102F60005527551FCA019A01220F331F280F391FF9
:102F700021553D4F70E0C7010E943628962F8C8165
:102F80004091AD026091AC02199F800D11240E9406
:102F90007F151F5FCFCF8150D8CFB0E0A0E0E3ED29
:102FA000F7E10C94AB28FC0182810FEF80FF01E078
:102FB00010E046E0A42E80911101181798F00E94AD
:102FC000001680916D02013009F04FC0811102C0DE
:102FD00080911101815080936D02CDB7DEB7EAE098
:102FE0000C94C728C0910F01C12ED12CCC0DDD2D22
:102FF000D11DCE01880F991FC80FD91FC155DD4FB4
:10300000198218821A8234E0E32EF12CB12C8091BF
:103010006D028B0D87301CF16A2D0E941428892FB8
:10302000082E000C990BC816D90691F48091AD02B8
:103030008E9DA0018F9D500D112455954795559556
:1030400047959E016091AC028091AB020E947F1572
:10305000B00EF1E0EF1AF108D1F61F5FACCF87FF99
:10306000DFCF90911101890FDBCF90E00196609145
:10307000110170E00E943628AECF0F931F93CF93BB
:10308000DF9380910F019091100123E0829FF00166
:103090001124E155FD4F891740F1C0E0D3E0609164
:1030A0001101C61740F10E94001620910B0180917A
:1030B0006C02820F80936C0290910C01920F90939E
:1030C0000C01191654F4082E000C990B40911101B3
:1030D0004150550B841795071CF0219520930B0147
:1030E000DF91CF911F910F9108951182108212826A
:1030F0008F5F3396D0CF0C2F10E070E0C8010E9494
:10310000362820910F01820F482F50E020916C0249
:10311000022E000C330B02171307BCF020910C0198
:10312000022E000C330B201731077CF08D9F90018D
:10313000112421553D4F4091AD026091AC02809128
:10314000AB020E947F15CF5FAACFFA01EE0FFF1FDF
:10315000E40FF51FE155FD4F118210821282F3CF6B
:10316000B0E0A0E0E6EBF8E10C94A928EC014C817A
:10317000042F10E09801D8010E947A289B01AC012D
:103180000E9490284B015C01E0E2F0E0E01BF10BB3
:10319000A5E5B0E0AC019B010E9490286B017C0189
:1031A0009F01DF010E9472289B01AC010E949B28B5
:1031B0009B01AC01280D391D4A1D5B1DC701B601DD
:1031C0000E944A28F22E822F90E039E23F1520F12A
:1031D00043E0249F9001112435952795122F1095D7
:1031E00000E085E5E82EEF1880911101081718F12D
:1031F0000E9400169C8181E0992319F0903219F405
:103200008FEF80930A0180910A01890F8C83CDB7DB
:10321000DEB7ECE00C94C52825E530E0B901681B69
:10322000790B9B01220F331F260F371F37FFD4CF97
:103230002F5F3F4FD1CF8E2D01FD8F2D20910F019C
:10324000622F600F7727771F9B01220F331F260FF6
:10325000371F21553D4F412F6091AC020E947F15D1
:103260000F5FC2CF0F931F93CF93DF93EC0110E05A
:1032700000E0909111019017110609F06CF40E9482
:1032800000168C8190E00196817099278C83DF91E4
:10329000CF911F910F91089520910F01A801420F26
:1032A000511D9A01220F331F240F351F21553D4F09
:1032B0004C816091AC028091AB02969590171106FB
:1032C00051F04CF0442349F04091AD020E947F152B
:1032D0000F5F1F4FCECF4423B9F340E0F7CFEAEAA8
:1032E000F2E080818E7F8083608171818281938111
:1032F0000E94A115109276022FEF80E792E02150F4
:1033000080409040E1F700C000000E940016089540
:103310006091AA02669570E04BE050E082E191E096
:103320000E94E628892B19F481E0809376020E949E
:10333000DD2090936F0280936E0208959091AA020F
:1033400090FF2BC09170811129C092609093AA02C6
:10335000662351F06091AA027091AB028091AC0299
:103360009091AD020E94A1156091AA02669570E04D
:103370004BE050E082E191E00E94E628892BA9F021
:103380001092760281E0809371024091AD026091CB
:10339000AC028091AB020E948C170895853210F028
:1033A0009864D4CF880F982BD1CF0E948819EACF88
:1033B000682F9091AA02969581E0890F853208F0D6
:1033C00081E00E949E19089581E00E94D819089515
:1033D000682F9091AA0296958FEF890F09F484E2E5
:1033E0000E949E19089581E00E94E819089561E005
:1033F0000E949E190895EAEAF2E08081816080834C
:1034000086950E94F71908958091AA0280FF03C053
:103410000E946F1908950E94FB19089560E00E94B0
:103420009E1908958091740281112EC00E94450D4D
:10343000811104C00E94EE0D0E94B4150E949C15DB
:103440006093AA027093AB028093AC029093AD029A
:103450006E7F61F40E94B4150E949C156093AA02CD
:103460007093AB028093AC029093AD020E948D15D5
:10347000109276028091AA0280FF03C086950E9476
:103480000E1A81E08093740208950F931F93CF93D7
:10349000DF93809176028823B9F180917502E091E3
:1034A000AA02E695E81BE0937002823091F5F0E005
:1034B000E458FD4FE491CE2FD0E004E516E1809171
:1034C0007102882361F0109271020E94DD209093B6
:1034D0006F0280936E0210927302109272020E9429
:1034E000DD20E0916E02F0916F028E1B9F0B8F3FEB
:1034F0009F4750F4EC0FFD1FF0936F02E0936E02B4
:103500008EE692E0F8010995DF91CF911F910F911E
:103510000895863049F4F0E0E758FD4FE491CE2F4E
:10352000D0E008E616E1CBCF893051F4E695F0E023
:10353000EA58FD4FE491CE2FD0E000E917E1BFCF6C
:103540008F3051F4E695F0E0ED58FD4FE491CE2F29
:10355000D0E00DEC17E1B3CF853149F4F0E0E0594C
:10356000FD4FE491CE2FD0E00DE318E1A8CFC8E2E3
:10357000D0E000EB18E1883109F4A1CF833239F4AF
:10358000EEE6F2E0C591D49108E716E198CFC4EFDA
:10359000D1E002E319E1843209F491CFC0EDD7E024
:1035A0000BE715E18CCFFA01811101C0FB010995F0
:1035B0000895CF93DF93C82FD62F0E94C4158C1780
:1035C00048F00E94C4158D1728F40E94E419DF9179
:1035D000CF9108958C2F0E94F719F9CF1F93CF93A5
:1035E000DF93EC01FB01128111117EC00E94570C88
:1035F0008272CD3CFCE5DF0709F49CC008F041C0B5
:10360000C73CECE5DE0709F481C0D8F4C43C9CE576
:10361000D90709F471C030F4C33CDC4509F469C032
:1036200011E062C0C53C9CE5D90709F46AC044E4D6
:1036300057E165E377E1C63CDC4591F70E94D31A78
:1036400053C0CA3CFCE5DF0709F46AC068F4C83C13
:10365000ECE5DE0709F45FC045E557E166E677E192
:10366000C93CDC4559F3DCCFCB3C9CE5D90709F4D8
:103670005CC048EF55E160EE75E1CC3CDC45F1F211
:10368000CFCFC23DFCE5DF0709F465C098F4CF3C1D
:103690009CE5D90709F457C008F451C0C03DFCE5CA
:1036A000DF0709F455C0C13DDC4509F0B9CF6EE034
:1036B00089E04BC0C53D9CE5D90709F452C058F4D8
:1036C000C33DFCE5DF0709F449C0C43DDC4509F012
:1036D000A7CF88E135C0C63D9CE5D90709F444C0B1
:1036E000CE35DD4509F09CCF812FDF91CF911F9121
:1036F00008950E94041AF8CF43EF59E164EE79E18E
:103700009DCF44EE59E163EF79E198CF45E357E16E
:1037100064E477E193CF46E657E165E577E18ECF44
:1037200048E857E167E777E189CF47E757E168E87D
:1037300077E184CF40EE55E168EF75E17FCF81E01E
:103740000E94F719D1CF65E082E00E94D91ACCCF50
:1037500068E086E0FACF64E18FE0F7CF67E185E1CA
:10376000F4CF62E289E1F1CF83E2EACF869A41B3F6
:103770004F7B51B35064EFB7F8949B01220F331F76
:10378000260F371F280F391F2817390741F4EFBFBD
:103790008FE594E00197F1F700C000000895DC0187
:1037A0006D91CD0178E051BB000000C067FF41BBC7
:1037B000660F000000C000C000C041BB00C07A9589
:1037C00091F7E2CFCF93DF93EC01FB018281882355
:1037D00009F464C1C430FDE5DF07E0F5CB3F9CE5AB
:1037E000D90730F49E0122503C4524313105D8F5EB
:1037F0000E945A0D9093950280939402C231ECE599
:10380000DE0709F41FC108F06EC0C9308CE5D80787
:1038100009F4F2C008F03FC0C530ECE5DE0709F45A
:10382000DBC058F5C3308CE5D80709F4CDC008F0EB
:10383000CFC0809194028160C230DC4509F4AEC0F3
:1038400080919402909195020E94680D0E94DB077E
:1038500080E009C0C63AEDE5DE0751F238F4C23621
:103860009DE5D90729F2DF91CF9108959E012E5A47
:103870003D4523303105B8F7BBCF8091940280627B
:10388000C730FCE5DF0709F489C008F4B1C08091B6
:103890009402806483C0CD309CE5D90709F4BAC096
:1038A00070F4809194028E7FCB30FCE5DF0709F441
:1038B00075C008F4A7C0809194028D7F6FC0CF308F
:1038C0009CE5D90709F4B6C008F4A8C0C031FCE5EE
:1038D000DF0709F4B3C0C131DC4509F0B1CF8091F5
:1038E00094028F7B5BC0C1159DE5D90709F4B4C074
:1038F00098F5CB3FFCE5DF0709F472C0B8F4C4319A
:103900009CE5D90709F4B6C008F4A2C0C531DC456E
:1039100009F096CF8091940282FB992790F921E0DB
:10392000922790FB82F990FB83F938C0CD3F8CE55C
:10393000D80709F477C008F457C0CE3FECE5DE079E
:1039400009F474C0809195028360CF3FDC4509F093
:1039500077CF8093950274CFC2368DE5D80709F4EE
:1039600096C068F4C230EDE5DE0709F48CC008F4B7
:1039700077C0C330DD4509F063CF80E085C0CE3A23
:103980009DE5D907E9F068F490919402892F8E7F24
:1039900090FF8160C63ADD4509F052CF80939402D2
:1039A0004FCFCF3A8DE5D80789F1C03BDD4509F00F
:1039B00047CF90919502892F877F93FF8860C9CF69
:1039C000809195028860C5CF809194028260E6CF95
:1039D000809194028460E2CF809194028860DECF6F
:1039E000809195028160B5CF809195028260B1CFC0
:1039F000809194028061D2CF0E94DB078091940273
:103A00008068CCCF809194028C60C8CF8091950261
:103A1000877F9FCF809194028B7FC0CF809194024B
:103A2000877FBCCF809195028E7F93CF8091950246
:103A30008D7F8FCF809194028F7EB0CF8091940242
:103A40008F7DACCF0E94DB07809194028F77A6CF49
:103A500080919402837FA2CF809195028C7F79CF51
:103A600080919502982F909591708E7F892B90FB75
:103A700081F96FCF0E94DB0790919402892F97FB09
:103A800087F980588BCF81E00E94F10DD9CE9091BB
:103A90009402892F8F7E94FF806180CF81E0E3CEF6
:103AA0008B3109F465C040F58B3071F078F48630C5
:103AB00009F447C020F4853059F180E0089587303B
:103AC00009F448C08830C9F781E00895803109F4CD
:103AD0005DC068F48E3089F790915A02892F8B7FF0
:103AE00092FF846080935A0282FD4CC0EDCF8631F4
:103AF00059F3893149F3E1CF8A3201F160F4873219
:103B0000B1F020F48E31C8F28D514CC08932A9F643
:103B10000E948F03D9CF833440F48A3308F041C028
:103B2000853329F0883381F2C8CF833431F681E0C0
:103B300090E00E9430080E94DB07C6CF0E94EE0D85
:103B4000C3CF80915A02807F80935A0281E0809394
:103B50007A02089590915A02892F8E7F90FF81609A
:103B600080935A0280FDB0CF817F80935A02ACCF00
:103B700090915A02892F8D7F91FF826080935A0223
:103B800081FFA2CF80915A028160EFCF90915A02BB
:103B9000892F877F93FF886080935A0283FDF2CF3D
:103BA00093CF895321E030E0A90102C0440F551F93
:103BB0008A95E2F7CA01BDCF80E008950E94DC1D1E
:103BC0000895CF93C82F80917A028130B9F088236D
:103BD00031F08230A1F110927A0280E00DC00E9493
:103BE000570C8232D1F78C2F0E94DC1D81111BC033
:103BF0008C2F0E94501D8170CF9108950E94570C08
:103C0000823289F38C2F0E94DE1D81110AC0C431DB
:103C100099F060F4CB3029F0C03169F782E08093ED
:103C20007A0281E0E8CF81E090E0E5CFC93221F06F
:103C3000C833B9F380E0DFCF10927A02FBCFC932EC
:103C400009F440C0F0F4C431E9F1A8F481E0C730D0
:103C500099F68093090184E1809308018AE08093BA
:103C600007018EE18093060188E08093030188E2DA
:103C70008093020104C082EE8C0F8A3070F181E0E3
:103C8000BBCFC03509F450C0B8F48AE0CF34B9F7DF
:103C9000E0917702F0917802309789F32081082E25
:103CA000000C990B820F911D8F3F910509F00CF4C8
:103CB0003FC08FEF8083E3CFC135C1F181E0C235D2
:103CC00039F39ACF809179028823C9F21092790250
:103CD0001092780210927702D2CFCD51C093790220
:103CE000C330C9F048F4C13099F088E091E0C230A7
:103CF00051F010927902C3CFC53099F078F082E08C
:103D000091E0C630B1F79093780280937702B7CFF5
:103D100089E091E0F8CF87E091E0F5CF86E091E08F
:103D2000F2CF83E091E0EFCF86EFB2CF8FEFB0CF4D
:103D300097FFC0CF1082A3CFCF93DF93EB018631E3
:103D40009C4511F50E94570C9A81992399F08A7A23
:103D500091E009F490E090937B02811109C089E21F
:103D60000E942F0C0E94980C80E0DF91CF91089563
:103D700085E3F6CF80917B02811104C089E20E9425
:103D8000370CF0CF85E3FBCF81E0EFCF0F931F938C
:103D9000CF93DF93C42FD22FFC0182818823C9F0F7
:103DA00040937E020E94DD2090937D0280937C02EE
:103DB00080E28C0F883040F4C77081E001C0880F2A
:103DC000CA95EAF70E947D05DF91CF911F910F916F
:103DD000089510917E02141332C080917C0290915C
:103DE0007D020E94F520883C910548F5C0E2CD0F88
:103DF0001D17B9F080E2810F883040F4177081E020
:103E000001C0880F1A95EAF70E948405C83048F46B
:103E100081E09D2F977001C0880F9A95EAF70E9464
:103E20007D05802F0E947405C83070F6D77081E040
:103E300001C0880FDA95EAF70E948405C5CF80E2B9
:103E40008C0F883008F6C77081E001C0880FCA95D2
:103E5000EAF7F2CF0F939C01CB01243F4CE53407E6
:103E600059F1A8F4293DFCE53F0701F12A3D4CE555
:103E70003407D1F1283D3C4591F406E221EE41EEB4
:103E800068ED7CE50E94C61E80E00F910895263FF4
:103E9000FCE53F07E9F0B0F0273F3C45F9F0FC01B5
:103EA0008281882339F110927E02EFCF07E225EE5E
:103EB00045EE69ED7CE5E6CF06E221EE40EE64EFEB
:103EC0007CE5E0CF07E225EE44EE65EF7CE5DACF56
:103ED00006E221EE42EE66EF7CE5D4CF07E225EE66
:103EE00046EE67EF7CE5CECF08E221E045EE6AEDD5
:103EF0007CE5C8CF81E0C9CF9093C7018093C6010C
:103F0000089590938402809383020895E091830240
:103F1000F0918402309729F00190F081E02D09950D
:103F2000089580E00895E0918302F0918402309733
:103F300021F00280F381E02D09950895E09183023C
:103F4000F0918402309739F022E0DC012C93048058
:103F5000F581E02D0995089520918102309182022A
:103F60002817390771F09093820280938102E091C3
:103F70008302F0918402309721F00680F781E02DD2
:103F80000995089520917F02309180022817390702
:103F900071F09093800280937F02E0918302F09110
:103FA0008402309721F00084F185E02D0995089571
:103FB0009C012E5F3F4FAC01485F5F4F80E02417AC
:103FC000350709F40895F90191919F019923B9F3F7
:103FD0008F5FF5CF662349F0FC0132960896219158
:103FE000261729F0E817F907D1F780E0089581E056
:103FF00008959C01FC0132969FEF80E041914617A5
:1040000051F09F3F19F4411101C0982F8F5F863006
:10401000A9F79F3F09F40895290F311D97FD3A959F
:10402000F90162830895FC013296089621912613C6
:1040300003C0DF0111971C92E817F907B9F708953B
:104040000E94F91F08950E9413200895029626E009
:10405000FC0111922A95E9F7089546E050E00E948C
:10406000F32821E0892B09F420E0822F0895089598
:104070000E9437200895811106C081E08093850257
:104080000E943820089582E0F9CF83E08093850272
:104090000E94382008950E943B20089581E080937B
:1040A00085020E94382008950E944E2008950895A8
:1040B00008950E9458200895089508950E94572059
:1040C0000895CF930E945C200E94CA110E945D2037
:1040D000C0E08C2F0E94FB10892B31F4CF5FC530DC
:1040E000C1F780E0CF91089581E0FCCF85B780686B
:1040F00085BF85B7806885BF08951F921FB61F9240
:1041000011248F939F93AF93BF9380918602811167
:1041100013C08091C1029091C202A091C302B091DC
:10412000C4024196A11DB11D8093C1029093C202A9
:10413000A093C302B093C402BF91AF919F918F919E
:104140001F901FBE1F9018958091C902843031F1D5
:104150000E94F3031092860288E190E020E40FB6FB
:10416000F894A895809360000FBE2093600083B7F9
:10417000817F846083BF83B7816083BF7894889593
:1041800083B78E7F83BF0FB6F894A89580916000A7
:10419000886180936000109260000FBE08950E94B5
:1041A000DB070E94F803089582E084BD93E095BD8B
:1041B0009AEF97BD80936E0008952FB7F894809181
:1041C000C1029091C202A091C302B091C4022FBF5C
:1041D00008952FB7F8946091C1027091C202809146
:1041E000C3029091C4022FBF08959C014FB7F89469
:1041F0008091C1029091C202A091C302B091C40209
:104200004FBF821B930B089578941F921FB61F9285
:1042100011248F939F93AF93BF938091C10290918C
:10422000C202A091C302B091C4020196A11DB11DAA
:104230008093C1029093C202A093C302B093C402C0
:10424000BF91AF919F918F911F901FBE1F901895A6
:1042500081E08093E00080E28093D8001092C90052
:104260008FE19EE40197F1F700C0000087E090EB3A
:10427000DC018093D2029093D302A093D402B09336
:10428000D50288E19CE00FB6F894A8958093600071
:104290000FBE90936000FFCF88E19CE00FB6F894CA
:1042A000A895809360000FBE90936000FFCF80912F
:1042B0009202089508959C0182E08093E9009FEFA7
:1042C0008091E800915085FD06C085ED8A95F1F753
:1042D00000009111F5CF8091E80085FF0CC050E0FF
:1042E00040E066E070E0C9010E948D238091E80003
:1042F0008E778093E8000895CF93DF93EC0181E0FF
:104300008093E9008FEF9091E800815095FD06C001
:1043100095ED9A95F1F700008111F5CF8091E800B5
:1043200085FF14C050E040E068E070E0CE010E94DC
:104330008D238091E8008E778093E80088E0FE016D
:10434000AAE8B2E001900D928A95E1F7DF91CF9152
:104350000895809387027093890260938802809108
:10436000C902843001F582E08093E9008FEF9091DB
:10437000E800815095FD06C095ED9A95F1F7000093
:104380008111F5CF8091E80085FF0DC050E040E03D
:1043900063E070E087E892E00E948D238091E8005E
:1043A0008E778093E8000895BC0184E00E94A921E3
:1043B0000895BC0183E00E94A92108958091C8025C
:1043C000811109C00E941D250E947A258091E2007A
:1043D00084608093E20008951092C80208950E94BC
:1043E0004E2008956091C50281E0611101C080E016
:1043F0000E94452008959091C90281E0943009F00F
:1044000080E06091C5020E944B20089542E061EC7B
:1044100081E00E94992442E261EC82E00E949924AA
:104420009091C90281E0943009F080E06091C5026A
:104430000E943B2008958091CB02833009F461C033
:1044400030F48130D1F1823009F49EC008958A3071
:1044500009F48AC08B3009F46FC0893009F050C06C
:104460008091CA02813209F04BC08091CE029091B6
:10447000CF02029708F044C08091E800877F8093C4
:10448000E8008091E80082FF37C09091F3008091AE
:10449000F200029731F48091F100813011F0863002
:1044A00021F48091F100809392028091E8008B7753
:1044B0008093E8000E94CD2423C08091CA02813AF3
:1044C000F9F48091E800877F8093E8008091CE0224
:1044D0009091CF02892B61F468E08AE892E070E065
:1044E0000E94DC238091E8008B778093E800089598
:1044F00060E090E080E0F3CF8091C9028111C1CFEC
:1045000008958091CA02813AD9F78091CE029091A4
:10451000CF02892BA9F78091E800877F8093E8007C
:104520008091E80080FFFCCF809129018093F10009
:104530008091E8008E77BCCF8091CA02813201F76A
:104540008091CE029091CF02892BD1F68091E80024
:10455000877F8093E8000E94CD248091CC028093D5
:1045600029010E94DB0708958091CA02813241F639
:104570008091E800877F8093E8000E94CD2480919D
:10458000CD028093930208958091CA02813A09F086
:10459000B7CF8091E800877F8093E8008091E800A2
:1045A00080FFFCCF80919302C1CF84B7877F84BF07
:1045B0000FB6F894A89580916000886180936000A0
:1045C000109260000FBE80E890E00FB6F8948093E0
:1045D0006100909361000FBE0E94542008950E94D4
:1045E0001D250E947A25E2EEF0E0808184608083C0
:1045F00078940E94F92708958DE191E00E94811F2F
:1046000008958091C902853031F48091C9028530C6
:1046100019F00E94CF2008950E94A4208091C70223
:10462000882399F30E946120882379F30E947723DD
:104630000E94DB07EACF08950E941F230895292FC7
:1046400033272330310519F168F42130310509F49D
:1046500044C02230310509F445C090E080E030E0EC
:1046600020E025C02132310549F122323105A9F778
:1046700080E490E02BE635E061157105C1F08BE731
:1046800090E020EF34E06130710589F0E6CF9927A2
:104690008130910581F0009729F00297F1F6E5E865
:1046A000F4E002C0EFE9F4E0849190E09F01FA01A8
:1046B000318320830895E1E9F4E0F6CF89E090E0CA
:1046C00025EB34E06115710591F389E090E02EEC63
:1046D00034E06130710559F3C0CF82E190E02EEDF6
:1046E00034E0E5CF8BE390E023EA34E0E0CF80E1F3
:1046F00089BD82E189BD09B400FEFDCF8091D8005B
:104700008F7D8093D8008091E00082608093E000EC
:104710008091E00081FDFCCF0895AF92BF92CF92CF
:10472000DF92FF920F931F93CF93DF936C01EB0106
:104730008A010E94EC24F82E811123C00115110575
:1047400039F0F80180819181C81BD90BC80ED91EA0
:10475000B12CA12C2097A9F08091E80085FD22C002
:104760008091E8008E778093E80001151105A1F093
:10477000F80180819181A80EB91EB182A08285E0E6
:10478000F82E8F2DDF91CF911F910F91FF90DF9029
:10479000CF90BF90AF9008950E94EC248823D1F26F
:1047A000F82EEFCFF60181916F018093F1002197F0
:1047B000FFEFAF1ABF0ACECFFC018091D0029091DB
:1047C000D10286179707A0F06115710529F4909121
:1047D000E8009E779093E80090E06115710551F430
:1047E000911108C08091E80082FF34C080E00895F4
:1047F000BC01F2CF8091C9028823C1F18530C1F19B
:104800008091E80083FD30C08091E80082FDEACF0E
:104810008091E80080FFE1CF8091F3002091F200C9
:10482000382F6115710519F02830310558F091E0E5
:104830002830310509F090E02091E8002E77209390
:10484000E800CBCF81918093F100615071092F5F17
:104850003F4FE7CF8091C902882341F0853041F076
:104860008091E80083FFBECF81E0089582E0089543
:1048700083E00895FC018091D0029091D1028617C7
:104880009707A0F06115710529F48091E8008E77F3
:104890008093E80090E06115710551F4911108C012
:1048A0008091E80082FF35C080E00895BC01F2CF1E
:1048B0008091C9028823C9F18530C9F18091E8004F
:1048C00083FD31C08091E80082FDEACF8091E8004D
:1048D00080FFE1CF8091F3002091F200382F611525
:1048E000710519F02830310558F091E02830310574
:1048F00009F090E08091E8008E778093E800CBCFBC
:1049000084918093F1003196615071092F5F3F4F80
:10491000E6CF8091C902882341F0853041F0809133
:10492000E80083FFBDCF81E0089582E0089583E031
:104930000895982F973028F08F708093E90081E0D8
:1049400008959093E900242F762F50E0981731F0C6
:104950007091EC002091ED005091F00021FD02C01B
:104960009F5FE8CF3091EB003E7F3093EB003091BA
:10497000ED003D7F3093ED003091EB0031603093DE
:10498000EB007093EC002093ED005093F000209129
:10499000EE0027FDE5CF80E008958091CA0287FFF1
:1049A00013C08091E80082FF06C08091E8008B77F9
:1049B0008093E80004C08091C9028111F2CF08956C
:1049C0008091C9028823D9F38091E80080FFF8CF55
:1049D0008091E8008E77ECCF2091E4003091E500E3
:1049E00095E6A9012091EC00822F817020FF06C07E
:1049F0008091E80080FF06C080E008952091E800E3
:104A000022FD1AC08091C902882389F0853089F07F
:104A10008091EB0085FD0FC02091E4003091E5000E
:104A200042175307F9F29150E1F684E0089582E0CD
:104A3000089583E0089581E008950E948C250E94E6
:104A40009425E0EEF0E0808181608083E8EDF0E085
:104A500080818F77808319BCA7EDB0E08C918E7F29
:104A60008C9380818F7E80831092C80208950F936B
:104A70001F93CF93DF930E948C250E949425C8ED4D
:104A8000D0E088818F778883888180688883888157
:104A90008F7D888319BC1092C9021092C5021092B2
:104AA000C7021092C60200EE10E0F80180818B7FF1
:104AB000808388818160888342E060E080E00E949A
:104AC0009924E1EEF0E080818E7F8083E2EEF0E0D9
:104AD000808181608083808188608083F80180810B
:104AE0008E7F8083888180618883DF91CF911F9141
:104AF0000F910895E8EDF0E080818F7E8083E7EDEF
:104B0000F0E080818160808384E082BF81E08093D7
:104B1000C8020E9437250895E8EDF0E080818E7F7D
:104B200080831092E20008951092DA001092E10062
:104B300008951F920F920FB60F9211242F933F9357
:104B40004F935F936F937F938F939F93AF93BF9395
:104B5000EF93FF938091E10082FF0BC08091E20010
:104B600082FF07C08091E1008B7F8093E1000E946B
:104B7000F8278091DA0080FF19C08091D80080FF6B
:104B800015C08091DA008E7F8093DA008091D90081
:104B900080FF96C080E189BD82E189BD09B400FE35
:104BA000FDCF81E08093C9020E94DE218091E10067
:104BB00080FF19C08091E20080FF15C08091E20063
:104BC0008E7F8093E2008091E20080618093E2001A
:104BD0008091D80080628093D80019BC85E08093D2
:104BE000C9020E94F2218091E10084FF2BC08091D4
:104BF000E20084FF27C080E189BD82E189BD89B5DB
:104C0000982F917080FFFBCF8091D8008F7D80938B
:104C1000D8008091E1008F7E8093E1008091E200D6
:104C20008F7E8093E2008091E20081608093E200B9
:104C30008091C502882309F449C084E08093C902A9
:104C40000E94FB218091E10083FF29C08091E20056
:104C500083FF25C08091E100877F8093E10082E09F
:104C60008093C9021092C5028091E1008E7F8093EB
:104C7000E1008091E2008E7F8093E2008091E2006B
:104C800080618093E20042E060E080E00E9499242D
:104C90008091F00088608093F0000E94EF21FF91E6
:104CA000EF91BF91AF919F918F917F916F915F91A4
:104CB0004F913F912F910F900FBE0F901F9018951D
:104CC00019BC1092C9020E94EC2170CF8091E300C0
:104CD00087FD93E09093C902B3CF1F920F920FB656
:104CE0000F9211242F933F934F935F936F937F9372
:104CF0008F939F93AF93BF93CF93DF93EF93FF93E4
:104D0000D091E900DF708091EC00C82FC17080FD68
:104D1000C0E81092E9008091F000877F8093F00056
:104D200078940E94B1261092E9008091F00088608A
:104D30008093F000CD2BCF70C093E900FF91EF91ED
:104D4000DF91CF91BF91AF919F918F917F916F91A3
:104D50005F914F913F912F910F900FBE0F901F9039
:104D60001895AAE2B0E0E7EBF6E20C94B2288AECE0
:104D700092E02091F100FC012193CF01F2E0823D0D
:104D80009F07B9F70E941B228091E80083FF1EC194
:104D90008091CA029091CB029A3008F017C1E92F96
:104DA000F0E0E15AF64D0C946C28803899F0823886
:104DB00009F00CC18091CE028F70873008F006C1D7
:104DC0008093E9008091EB0085FB882780F91092A1
:104DD000E90006C08091C6029091C70291118260DD
:104DE0009091E800977F9093E8008093F1001092F3
:104DF000F1008091E8008E77E5C0882309F4D3C0E4
:104E0000823009F0E3C08091CC028111D6C080913C
:104E1000CE028F702FEF280F263008F0D7C0809376
:104E2000E9002091EB0020FFC8C0933031F480915D
:104E3000EB0080628093EB00C0C09091EB0090612A
:104E40009093EB0021E030E001C0220F8A95EAF751
:104E50002093EA001092EA008091EB008860EACF8C
:104E60008111B4C01091CC021F778091E30080784B
:104E7000812B8093E3008091E800877F8093E80096
:104E80000E94CD248091E80080FFFCCF8091E30058
:104E900080688093E30082E0111183E08093C9026F
:104EA00095C08058823008F091C08091CC029091DA
:104EB000CD028C3D23E09207A1F583E08A838AE24C
:104EC00089834FB7F894DE01139620E03EE051E26B
:104ED000E32FF0E050935700E49120FF03C0E295E8
:104EE000EF703F5FEF708E2F90E0EA30C0F0C79612
:104EF0008D939D932F5F243159F74FBF8091E80028
:104F0000877F8093E8006AE270E0CE0101960E94FC
:104F1000DC238091E8008B778093E80057C0C0962F
:104F2000E7CF6091CE027091CF02AE014F5F5F4F2D
:104F30000E941C23BC01892B09F448C09091E80011
:104F4000977F9093E80089819A810E943A24E1CF6B
:104F50008038E1F58091E800877F8093E8008091B8
:104F6000C5028093F10045CF811130C09091CC02F1
:104F7000923060F58091E800877F8093E8009093FD
:104F8000C5020E94CD248091C502882311F084E0DF
:104F900005C08091E30087FDFACF81E08093C902CC
:104FA0000E94062213C08091CC02813079F481E006
:104FB000933009F080E08093C7021092E90080915D
:104FC000E800877F8093E8000E94CD248091E8006C
:104FD00083FF0AC08091E800877F8093E80080917A
:104FE000EB0080628093EB00AA96E3E00C94CE285D
:104FF0000895CF938091C9028823A1F0C091E90060
:10500000CF709091EC00892F817090FD80E8C82BC3
:105010001092E9008091E80083FD0E94B126CF70D4
:10502000C093E900CF91089587FB082E062687FDDF
:10503000819567FD61950E94DA280EF4919507FC31
:1050400081950895AA1BBB1B51E107C0AA1FBB1F76
:10505000A617B70710F0A61BB70B881F991F5A9504
:10506000A9F780959095BC01CD01089597FB072E77
:1050700016F4009407D077FD09D00E94222807FC7F
:1050800005D03EF4909581959F4F08957095619558
:105090007F4F0895A1E21A2EAA1BBB1BFD010DC074
:1050A000AA1FBB1FEE1FFF1FA217B307E407F507D8
:1050B00020F0A21BB30BE40BF50B661F771F881FB4
:1050C000991F1A9469F760957095809590959B014A
:1050D000AC01BD01CF010895EE0FFF1F0590F491C3
:1050E000E02D09940E947A28332312F48A1B9B0B2B
:1050F0000C948B28A29FB001B39FC001A39F700D99
:10510000811D1124911DB29F700D811D1124911DCF
:1051100008950E947A28B7FF0895821B930B089583
:105120000E947A28A59F900DB49F900DA49F800D9A
:10513000911D11240895B7FF0C9490280E94902887
:10514000821B930B08952F923F924F925F926F9222
:105150007F928F929F92AF92BF92CF92DF92EF9207
:10516000FF920F931F93CF93DF93CDB7DEB7CA1B88
:10517000DB0B0FB6F894DEBF0FBECDBF09942A88B3
:10518000398848885F846E847D848C849B84AA845B
:10519000B984C884DF80EE80FD800C811B81AA81E8
:1051A000B981CE0FD11D0FB6F894DEBF0FBECDBFB3
:1051B000ED010895991B79E004C0991F961708F036
:1051C000961B881F7A95C9F780950895FC01415078
:1051D000504030F001900616D1F73197CF01089575
:1051E000882799270895FB01DC0104C08D91019067
:1051F000801921F441505040C8F7881B990B08953D
:10520000FB01DC0102C001900D9241505040D8F7E3
:105210000895F999FECF92BD81BDF89A992780B57E
:105220000895A6E1B0E044E050E00C944329A8E1E1
:10523000B0E042E050E00C944329262FF999FECFCC
:1052400092BD81BDF89A019700B4021639F01FBAD9
:1052500020BD0FB6F894FA9AF99A0FBE08950396F6
:10526000272F0E941E290E941D29252F0E941E29DA
:10527000242F0C941E290196272F0E941E290C947E
:105280001D29DC01CB01FC01F999FECF06C0F2BD5E
:10529000E1BDF89A319600B40D9241505040B8F7F4
:1052A0000895F894FFCFC605C605F705F7058406EF
:1052B000A00626062606AB061C072B072B07D526BD
:1052C000FD26E627FD26E62730275127E627A827D3
:0252D000B42701
:1052D2003C02280850011E0A1401010102000600C6
:1052E200060601191A1B1C1D1E1F20212257217C94
:1052F200215B21D921D4215A2101E200E900EA00EF
:10530200B500B600B700CD008301CC008A0192013E
:1053120094012102230224022502260227022A02E4
:10532200B300B4006F007000818283E200E900EAFA
:1053320000B500B600B700CD008301CC008A01920F
:105342000194012102230224022502260227022AB5
:1053520002B300B4006F007000818283F0F1C6676F
:1053620066369431373534979633309091929395CF
:105372000001020202020606060909090909090FCB
:105382000F0F0F0F0F1515151819191919191919CA
:0653920019191923240083
:00000001FF
